:1000000045C0000036C100005EC000005CC00000BA
:100010005AC0000058C0000056C0000054C0000084
:1000200052C0000050C000004EC000004CC0000094
:100030004AC0000048C0000046C0000044C00000A4
:10004000E7C0000040C000003EC000003CC000000F
:100050003AC0000038C0000036C0000034C00000C4
:1000600032C0000030C000002EC000002CC00000D4
:100070002AC0000028C0000026C0000024C00000E4
:1000800022C0000020C000001EC0000011241FBEBE
:10009000CFEFD0E1DEBFCDBF11E0A0E0B1E0E8EEF0
:1000A000F2E000E00BBF02C007900D92A030B10754
:1000B000D9F721E0A0E0B1E001C01D92A330B20762
:1000C000E1F702D00FC19CCFCF93DF9300D000D0D7
:1000D000CDB7DEB7109200018AE390E02FEFFC016C
:1000E00020838BE390E02EEFFC01208383E590E0FA
:1000F00024E0FC01208382E590E02EE8FC012083CF
:1001000087E590E021E0FC01208387E390E0FC019B
:1001100010828AE690E02FEFFC01208389E590E0D1
:1001200021E0FC01208378948CE489831B821A826D
:1001300089E390E0FC01808180958C8380910001AF
:10014000882F90E081309105A9F0823091051CF450
:10015000892B39F04BC082309105A9F0039761F1EA
:1001600045C08C81880F8C838C818823D1F581E0F8
:100170008C8337C08C8186958C838C81882399F5FC
:1001800080E88C8330C089818C3459F48C81880F4D
:100190008C838C81882349F582E5898380E48C8374
:1001A00024C08C8186958C838C818823F1F48CE427
:1001B000898382E08C8319C08A819B81059731F005
:1001C0008A819B8101969B838A8310C08C818A3AA5
:1001D00019F08AEA8C8302C085E58C831B821A821F
:1001E00005C0000003C0000001C000008BE390E0E8
:1001F0002C812095FC0120830000809101019091C9
:100200000201C297D4F3109202011092010190CF23
:100210001F920F9200905F000F92112400905B00DC
:100220000F922F938F939F93EF93FF93CF93DF932F
:10023000CDB7DEB7809101019091020101969093B4
:1002400002018093010182E590E02EE8FC01208309
:100250000000DF91CF91FF91EF919F918F912F91AE
:100260000F9000925B000F9000925F000F901F9024
:1002700018951F920F9200905F000F9211248F9398
:100280009F93CF93DF93CDB7DEB780910001882F86
:1002900090E08130910581F0823091051CF4892B2A
:1002A00039F015C08230910559F0039769F00FC0FD
:1002B00081E0809300010BC082E08093000107C0C1
:1002C00083E08093000103C0109200010000000051
:1002D000DF91CF919F918F910F9000925F000F90CF
:0802E0001F901895F894FFCF60
:00000001FF
